:040000008A15092A2A
:06000600000000000800EC
:0E000C00213083120313FD00FD0B0A280800AB
:10001A000F3083120313FC004730FD00FD0B132839
:0A002A00FC0B132800000000080082
:08003400FA1FF213003008006E
:10003C0083120317C91B2428861225288616491BF0
:10004C00292806122A280616C91A2E2886112F28A6
:10005C008615491A3328061134280615271838280E
:10006C00061439280610861403208610C919402856
:10007C008612412886164919452806124628061666
:10008C00C9184A2886114B28861549184F2806117D
:10009C0050280615271854280614552806108614BF
:1000AC0003208610271C5C280D205D2806200800E4
:1000BC00FB14FB1F6828FF30F300F200F100F00086
:0800CC00FA0DF20CFF300800F0
:1000D4007B15FB1F74280130F300F201F101F001DC
:0800E400FA0DF20CFF300800D8
:0E00EC00F201F101F001F801F301003008000B
:1000FA0083120313FA017308031D7A147708031D88
:10010A00FA147A080319C928033A031994287A18A1
:10011A009128F61FC728C528F21FC528C7287208C4
:10012A008039FA00F21376088039F6137A06031931
:10013A00A2287A080319C528C72877087302031961
:10014A00A928031CBD28C128760872020319B02801
:10015A00031CBD28C128750871020319B728031C9E
:10016A00BD28C128740870020319C9280318C128B8
:10017A00FA080319C728C528FA080319C528C72881
:10018A0003140800031008000314031508000800EC
:10019A00831203174408F2007208F100F20A4508B4
:1001AA00F000C50A700884000008F0007108840095
:1001BA00700880007108840000080319E528D12816
:0601CA004408F0000800EB
:1001D00083120313F801F9011030FC00710DF80DC2
:1001E000F90D7408F8027508031C750FF90203185D
:1001F00000297408F80775080318750FF90703102C
:0A020000F00DF10DFC0BEE280800D4
:10020A0083120313FB017308031D770803195C2982
:10021A0072087606FA007708F3077E30031C19295C
:10022A00F30203185F291C29F302031C62297208CE
:10023A00F8007108FC007008FD00F817F6170310A3
:10024A00F201F101F0011830A0007D1C3629740872
:10025A00F00775080318750FF10776080318760F6B
:10026A00F207F20CF10CF00CF80CFC0CFD0C03106C
:10027A00A00B2A29F21B4629F80DF00DF10DF20DFB
:10028A00F3037B1B701C5829F81F5829F00A03191D
:10029A00F10A0319F20A031D5829F20CF10CF00CA9
:1002AA00F30A03195F29FA1FF21300306429013097
:1002BA007620642902305E20642904306A20000016
:0202CA0008002A
:1002CC0083120313FD01F80170080319003474063E
:1002DC00FA00FA1BFD09FB01F41F7629F409F40A54
:1002EC00F01F7A29F009F00A70087404FA00FA1B5E
:1002FC009E297408F802F00D700DF80D7408F807BB
:10030C00F00D0630FC00700DF80D74087018F80232
:10031C00701CF807F00DFC0B8929701CF8077B1872
:10032C00AC29FD1F0034F009F00AF809F80A003472
:10033C00F41FA929F01BA6297008F800F0019729D1
:10034C00F001F00A0034F009FB0A7F29F80A74085E
:10035C007802031D9729F801F00AF01F9729FF3442
:02036C00080087
:10036E008312031727104408C9001E2003172714F1
:02037E00080075
:10038000063083120313FD00FD0BC4290000080092
:06039000FB15FF30080020
:1003960083120317C401C601C7011030C800043018
:1003A60047020318002AF030031387008030F0005C
:1003B6007008073E840003174809F00070088000A3
:1003C600032003200F3003130705F00070080317FE
:1003D600C50070080319FA294608C4004508031920
:1003E600F829C50CC513C40AF1290430C700C80D85
:1003F60048100430C607C70AD2294408F00008008E
:100406000E3083120313FD00FD0B072A00000800BF
:10041600A0017208031D202A7108F2007008F1007D
:10042600F001A0157208031D202A7108F200F101DF
:10043600A0112016720803192E2A2008F302031DA4
:10044600031C322A0310F21B362AF00DF10DF20DB1
:10045600F30B262A322A0130FC007620392A023094
:0E046600FC006A20392A0430FC001A2008002D
:10047400831203139F01C0309F046B09F0007008BE
:1004840083169F051F179F17831203173708F00061
:10049400F00D7010F00D7010F00D70107008031353
:1004A4009F041F1403221F151F1D5A2A0000562AD9
:1004B4001F101E08F100F00183161E08F00400301E
:0404C400F104080037
:0E04C800831203172D088A002C0882000800FA
:1004D600013083120317C9001E200C300317C90010
:0404E6001E200800CC
:1004EA0083120317BA0105303A020318832A3A081D
:1004FA003907840020308000BA0A782A3A08390776
:10050A0084008001BA033A083907BB000A30F400B4
:10051A00F5013708F0003808F100E8207808F00003
:10052A007908F1003030F00703173B08840070089F
:10053A0080000A30F400F5013708F0003808F100AD
:10054A00E82070080317B7007108B8000030710678
:10055A00031DB12A00307006031DB42AB62ABA0355
:04056A00882A0800D3
:10056E0083120317B80138083707840000080319EF
:10057E00C82A3808370784000008C400B721B80A13
:04058E00BA2A08007D
:10059200CB217008B7000F3003130705F0000319D1
:0E05A200D42AC021CC2A03173708F000080025
:1005B000831203137008F8007108F000F101F201D2
:1005C000F301FB01FC019630F300FA017008F10021
:0C05D0007808F000F801F2010B2208008E
:1005DC0083120313F101F20100307202031DF82A99
:1005EC00323071020318122B88172730FC00F530BB
:1005FC00FD00FD0BFF2AFC0BFF2A88133130FC0099
:10060C000B30FD00FD0B082BFC0B082B0000000031
:0A061C00F10A0319F20AF22A08009D
:1006260083120317C201C3013708BE003808BF0092
:100636003908C0003A08C1004108FF3A031D2D2BB6
:100646004008FF3A031D2D2B3F08FF3A031D2D2BB3
:100656003E08FF3A031D372B3B08C400E630C500B1
:10066600CD200330F000182D0130BC00C01F462BF2
:1006760080304006F0007008C000BC0A3B088400C9
:100686002D308000BB0A0030F0004106031D552BBB
:1006960070084006031D552B70083F06031D552B99
:1006A6003E08003A031D5E2B3B08C400EA30C50035
:1006B600CD20F001182D4108FF3A031D6C2B400890
:1006C600003A031D6C2B3F08003A031D6C2B3E08B5
:1006D600003A031D762B3B08C4006C30C500CD20C4
:1006E6003C08F000182D0030F4000030F500003012
:1006F600F6007F30F7003E08F0003F08F1004008A2
:10070600F2004108F3007D20013003180030F000AC
:1007160070080319AB2B03173E08F0003F08F100E1
:100726004008F2004108F3000030F4000030F50004
:100736002030F6008230F700052170080317BE004E
:100746007108BF007208C0007308C100C303762B8E
:1007560003170030F4000030F5002030F600823038
:10076600F7003E08F0003F08F1004008F20041089B
:10077600F3007D200130031C0030F00070080319DF
:10078600E12B03173E08F0003F08F1004008F20095
:100796004108F300CD30F400CC30F5004C30F600C3
:1007A6007B30F700052170080317BE007108BF00F3
:1007B6007208C0007308C100C30AAB2B0317FF30D1
:1007C6003E05F800FF303F05F9007F304005FA008E
:1007D60000304105FB007808F4007908F5007A0836
:1007E600F6007B08F700F40DF50DF60DF70D741005
:1007F60000303E05F00000303F05F10000304005B6
:10080600F200FF304105F3007008BE007108BF001A
:100816007208C0007308C10074083E04F000750831
:100826003F04F10076084004F20077084104F30023
:100836007008BE007108BF007208C0007308C100CE
:100846007F304102F0007008BD000130C100700821
:10085600F4003E08F0003F08F1004008F2004108AD
:10086600F300740803193E2CF00DF10DF20DF30D93
:100876007010FF3E352C7008BE007108BF0072086C
:10088600C0007308C1004108303EF0003B088400F8
:1008960070088000BB0A80304306F0008030013AC1
:1008A6007002031C5F2C8030063AF000803043064D
:1008B6007002031C5F2C662C3B0884002E308000DF
:1008C600BB0A0130C2000630BD003D08003A0319DC
:1008D600C42CC1013E08F0003F08F1004008F200B8
:1008E6004108F300F00DF10DF20DF30D7010F00D4F
:1008F600F10DF20DF30D70103E08F0073F080318D6
:100906003F0FF10740080318400FF207410803188C
:10091600410FF3077008BE007108BF007208C000DF
:100926007308C1003E08F0003F08F1004008F200DD
:100936004108F300F00DF10DF20DF30D7010700883
:10094600BE007108BF007208C0007308C1004108EC
:10095600303EF0003B08840070088000BB0A420865
:10096600003A031DC22CC3034308003A031DC22CE0
:100976003B0884002E308000BB0A0130C200BD0354
:10098600682CFF303B0784000008303A031DCD2C4D
:10099600BB03C42CFF303B07840000082E3A031D1E
:1009A600D52CBB034308003A0319142D3B088400D9
:1009B60065308000BB0A80304306F0008030003A84
:1009C60070020318EE2C3B0884002D308000BB0A11
:1009D6004308003CC3004308BD008030093AF000DC
:1009E6008030430670020318052D0A30F4003D08D6
:1009F600F00066213030F00703173B0884007008CA
:100A06008000BB0A0A30F4003D08F0006621780831
:100A1600F0003030F00703173B08840070088000B0
:0C0A2600BB0A3B0884008001F0010800BE
:100A3200710DF80DF90D7408F8027508031C750F95
:100A4200F902F00DF10D0F30FC00710DF80DF90DEA
:100A52007408701C322DF8027508031C750FF90218
:100A6200372DF80775080318750FF907F00DF10D0A
:100A7200FC0B262D7018432D7408F807750803180F
:080A8200750FF90700000800E0
:100A8A00572D803083120317B7006A2DC030B70084
:100A9A006A2D9430B7006A2DD430B7006A2D8030A1
:100AAA00B7006A2D831203173708013A0319462D36
:100ABA003708023A03194B2D3708033A03194E2D0A
:100ACA003708043A0319512D542D3803F00037081A
:100ADA00F0077008B7007008C9001E200317271016
:100AEA00BA013A083907840000080319842D3A0824
:100AFA00390784000008C400B721BA0A762D2714E2
:020B0A000800E1
:100B0C00831203137408003A031DA12D7508003AD3
:100B1C00031DA12D7608003A031DA12D7708003A7C
:100B2C00031DA12DFF30F000FF30F1007F30F200EB
:100B3C00FF30F3003C2E8312031377080319302E79
:100B4C0073080319332E720876068039FA00F217EF
:100B5C00F617A0017208F8007108FC007008FD007F
:100B6C007408FD027508031C750FFC027608031C43
:100B7C00760FF802F801FC01FD01031CCC2D0310CB
:100B8C00F20CF10CF00CF80C0130A0007708F30219
:100B9C00031CD62D7E302007F3070318362EDB2DD1
:100BAC007E302007F307031C392E1830FA07FD0D91
:100BBC00FC0DF80DF00DF10DF20DA00D7408F00206
:100BCC007508031C750FF1027608031C760FF202F0
:100BDC00760DA004201CF42D7D14FF2D7408F00755
:100BEC0075080318750FF10776080318760AF207D3
:100BFC007D10FA031F307A05031DDD2D7B1B7D1C38
:100C0C00262E0310F00DF10DF20DA00D7408F0025C
:100C1C007508031C750FF1027608031C760FF2029F
:100C2C00760D20040139FD070318FC0A0319F80A94
:100C3C00031D262EF80CFC0CFD0CF30A0319362EA2
:100C4C00FA1FF8137808F2007C08F1007D08F00018
:100C5C0000303B2E0130C8213B2E023076203B2E3B
:0E0C6C0004305E203B2E08306A200000080095
:100C7A008312031386173330FB00BB30FC00DF30CE
:100C8A00FD00FD0B462EFC0B462EFB0B462E0000EC
:060C9A00000086130800B3
:100CA00083120317B301B4012E08B5002F08B60054
:100CB00080302F06F00080307002031D612E00305E
:100CC0002E0203186F2E0130B3000030B4002E083E
:100CD000003CB5002F08031C013EB601B6023508E2
:100CE000B7003608B8003008B90075220630B100E8
:100CF0000030B2003208003C031D802E3108003C59
:100D000003189B2E31083007F20001303102F00049
:100D10000030031C013E3202F100700830078400ED
:100D20000008F00072088400700880000130B102F1
:100D3000031CB2037A2E3008840020308000330870
:100D400034040319B92EB101B2013108300784000F
:100D50000008203A031DB02EB10A0319B20AA52ECD
:100D60000130B102031CB2033108300784002D307A
:040D700080000800F7
:100D740083120313081CEF2E6708F4006808F500BB
:100D84006908F6006A08F70003172008F000210834
:100D9400F1002208F2002308F3007D20013003183B
:100DA4000030F00070080319EF2E6B220130031796
:100DB400B7000130B800BE30B90045253D260230E9
:100DC400FB000430FC00BA30FD00FD0BE72EFC0BE9
:100DD400E72EFB0BE72E00006A2F081C252F67085F
:100DE400F4006808F5006908F6006A08F7000317BC
:100DF4002008F0002108F1002208F2002308F30083
:100E04007D200130031C0030F00070080319252FE9
:100E14006B2201300317B7000130B8002D30B90040
:100E24004525EE2286173330FB00BB30FC00DF3053
:100E3400FD00FD0B1B2FFC0B1B2FFB0B1B2F0000BE
:100E4400000086136A2F0818582F6708F4006808F2
:100E5400F5006908F6006A08F70003172008F00097
:100E64002108F1002208F2002308F3007D2001305C
:100E7400031C0030F00070080319582F6B22013056
:100E84000317B7000130B8003630B90045253D26B8
:100E94000230FB000430FC00BA30FD00FD0B502F83
:100EA400FC0B502FFB0B502F00006A2F6B220130DC
:100EB4000317B7000130B8002130B9004525B6301A
:100EC400FC00D030FD00FD0B652FFC0B652F0000EE
:100ED4000330FB000830FC007730FD00FD0B702F61
:0A0EE400FC0B702FFB0B702F0800B1
:100EEE0083120317A001A101A201A301B7013A22A7
:100EFE00D822F630F4002830F5001C30F600813090
:100F0E00F700052170080317A0007108A1007208F0
:100F1E00A2007308A3000030F4000030F50020306A
:100F2E00F6008230F700862570080317A0007108BE
:100F3E00A1007208A2007308A3000330FB00083062
:100F4E00FC007730FD00FD0BAA2FFC0BAA2FFB0B2C
:040F5E00AA2F0800AE
:100F620083120313FB01FA01F9018030F800F10C3E
:100F7200F00C031CC52F7408F90775080318750FC8
:100F8200FA070318FB0A0310F01FCD2F7408FA07A3
:100F920075080318750FFB07FB0CFA0CF90CF80C1B
:100FA200031CB82F7B08F3007A08F2007908F100DD
:060FB2007808F0000800C1
:100FB800831203137008F8007108F000F101F201C0
:100FC800F301FB01FC019630F300FA01F01FF22F48
:100FD800F809F009F80A0319F00AFA177008F1007D
:0C0FE8007808F000F801F2010B2208006C
:10100000831203179F018A11C9228A1570089F0055
:10101000700803190328302831309F0060283230CF
:101020009F00602833309F00602834309F00602884
:1010300035309F00602836309F00602837309F0091
:10104000602838309F00602839309F0060282A309F
:101050009F00602830309F00602823309F00602868
:101060001F08013A03190C281F08023A03190F2818
:101070001F08033A031912281F08053A03191528F7
:101080001F08063A031918281F08073A03191B28D6
:101090001F08093A03191E281F080A3A03192128B4
:1010A0001F080B3A031924281F080D3A0319272893
:1010B0001F080E3A03192A281F080F3A03192D2872
:0C10C0001F08C4008A11B7218A1508001F
:1010CC00831203137408003A031D75287508003A3F
:1010DC00031D7528FF30F0007F30F100D0288312FB
:1010EC000313FD01F901F8017108700403190034B0
:1010FC0071087506FA00FA1BFD09FB01F51F8B2818
:10110C00F409F509F40A0319F50AF11F9228F009FC
:10111C00F109F00A0319F10A71087504FA00FA1BB7
:10112C00A7288A1119258A157B18BC28FD1F0034A5
:10113C00F009F109F00A0319F10AF809F909F80A9A
:10114C000319F90A0034F51FB828F11BB4287108EB
:10115C00F9007008F800F101F0019C28F101F00190
:10116C00F00A0034F109F009FB0A9928F80A03196E
:10117C00F90A74087802031D9C2875087902031D6E
:10118C009C28F901F801F00A0319F10AF11F9C28B7
:06119C000000FF34080012
:1011A2008316031386100610061186110612861284
:1011B20083128610061086120612861106118A11F3
:1011C2000D208A158A110D208A158A110D208A1583
:1011D2008615061586148A1103208A1586108A112F
:1011E2000D208A1586148A1103208A1586108A1109
:1011F2000D208A1586148A1103208A1586108A11F9
:101202000D208A15061186148A1103208A1586106C
:101212008A110D208A1586148A1103208A158610D8
:101222008611861686148A1103208A1586108A1161
:101232000D208A158612061586148A1103208A1536
:101242008610061186148A1103208A1586108A11C7
:101252000D208A1586148A1103208A158610061518
:1012620086148A1103208A1586108A110D208A1588
:10127200061186148A1103208A1586108616061610
:101282008615061586148A1103208A1586108A117E
:0A1292000D208A1503172714080029
:10129C008312031386178230FC00DD30FD00FD0B3A
:0E12AC005529FC0B5529000000008613080090
:1012BA008A116B228A1501300317B7000430B8006F
:1012CA005330B9008A1145258A150230B700043017
:1012DA00B8005C30B9008A1145258A151430FB0024
:1012EA004830FC000130FD00FD0B7929FC0B7929FF
:1012FA00FB0B79298A116B228A1501300317B70073
:10130A000430B8003F30B9008A1145258A150B30E0
:10131A00FB002630FC005D30FD00FD0B9229FC0B22
:0C132A009229FB0B922900000000080033
:10133600831203172008B7002108B8002208B90055
:101346002308BA00A030BB008A1113238A15013086
:10135600B7000130B800B030B9008A1145258A15AA
:101366000330FB000830FC007730FD00FD0BB92987
:10137600FC0BB929FB0BB9290230B7000130B800C4
:10138600A030B9008A1145258A15CB30B7008A11DD
:10139600B7228A151530FB004B30FC00BE30FD002D
:1013A600FD0BD329FC0BD329FB0BD3290000080026
:1013B600803083120313F0007008073E8400FF306C
:0413C600800008009B
:1013CA00FF3083120317A400FF30A500FF30A600E8
:1013DA00FF3003139F01C0309F046B09F0007008AF
:0E13EA0083169F051F179F1783121F140800FC
:1013F8008A1164228A150A128000840AAC0A031929
:0A140800AD0AF003031DFC290800E3
:101412004E240130831603138500033088008601B1
:101422000608890083128613DB21E521D1200130D1
:10143200B7000430B8004830B9008A1145258A1532
:101442001530FB004B30FC00BE30FD00FD0B272A9F
:10145200FC0B272AFB0B272A00005D218A11772724
:101462008A158A11BA268A15831203179F01002052
:101472004E2103171F08003A0319382A8A116B22DA
:101482008A1503171F08313A031DCD2A0130B70010
:101492000130B8001030B9008A1145258A150B3089
:1014A200FB002630FC005D30FD00FD0B562AFC0BD4
:1014B200562AFB0B562A00000000A801A901803021
:1014C2002906F00080307002031D692A14302802B8
:1014D2000318CC2A8A1177278A154E219B210B30BB
:1014E200FB002630FC005D30FD00FD0B762AFC0B74
:1014F200762AFB0B762A000000008A11BA268A158A
:1015020083120313081CC62A6708F4006808F50052
:101512006908F6006A08F70003172008F00021089E
:10152200F1002208F2002308F3008A117D208A15B7
:101532000130031C0030F00070080319C62A003085
:1015420083166D06031DA72A00306C06031DC62AEA
:1015520083120317280883160313EE00831203175E
:10156200290883160313EF00831203172808AE001D
:101572002908AF001B30B0008A1150268A150130AD
:1015820083160313EC000030ED0083120317A80A40
:101592000319A90A602A772B1F08323A031D412B2F
:1015A2008A116B228A150330FB000830FC00773069
:1015B200FD00FD0BDA2AFC0BDA2AFB0BDA2AC0301B
:1015C2000317C9008A111E208A1503179D019E0167
:1015D200002030301F02F000F101031CF1037008FB
:1015E200AA007108AB001908F4001A08F5008A1164
:1015F200B1278A15700803179D0771080318013E69
:101602009E070A30F4000030F5001908F0001A08AD
:10161200F100662070080317990071089A004E21A4
:1016220003171F08233A031DE92A1D08F0001E08AC
:10163200F1008A11DC278A157008E7007108E800BA
:101642007208E9007308EA004E210730FB001730E8
:10165200FC006A30FD00FD0B2C2BFC0B2C2BFB0B32
:101662002C2B00004E210830FB001B30FC002730E1
:10167200FD00FD0B3A2BFC0B3A2BFB0B3A2B772B85
:1016820003171F08333A031D592B8A1177278A152E
:101692009B210630FB001330FC00AD30FD00FD0B3A
:1016A200502BFC0B502BFB0B502B00000000772B18
:1016B2001F082A3A0319772B8A116B228A150130E7
:1016C2000317B7000130B800D230B9008A1145259E
:1016D2008A151530FB004B30FC00BE30FD00FD0BBF
:1016E200702BFC0B702BFB0B702B00008A116B22F2
:1016F2008A1503171F082A3A031D2E2A0B30FB00F6
:101702002630FC005D30FD00FD0B852BFC0B852B8C
:10171200FB0B852B000000000130B7000130B80040
:10172200DF30B9008A1145258A158A113D268A15AE
:0E17320008300317C9008A111E208A159F2B4C
:10189C0021308400463083120313F000A530031767
:1018AC00AC000B30AD00FC21A03084001E30F000E9
:1018BC00EB300317AC000B30AD00FC21673084001B
:1018CC000430F0004A300317AC000C30AD00FC21A2
:1018DC00BE3084001430F00009300317AC000C301B
:1018EC00AD00FC216B3084000130F000FE3003179A
:1018FC00AC000730AD00FC21D23084001430F00075
:10190C001D300317AC000C30AD00FC216C30840092
:10191C000430F000FA300317AC000730AD00FC21A6
:10192C00E63084000A30F00040300317AC000C3075
:10193C00AD00FC211030831784000F30F0003130E3
:0E194C000317AC000C30AD00FC218313080023
:080FF40049344E344634003448
:020FFC000F34B0
:10174A00733465346D34203466346F3467346F34DF
:08175A0020345E345E340034DB
:1017620068346134203466346F3467346F34203423
:02177200003441
:10177400743461342034633461346C346F347234BF
:0217840000342F
:101786005B3433345D342034743465346D347034F2
:0217960000341D
:101798004D344934433420344D34493443342034AF
:0617A8003A34293400343C
:1017AE005B3431345D34203469346E3469347434CE
:0217BE000034F5
:1017C0005B3432345D34203463346F346E346634C9
:0617D000693467340034A7
:1017D6000034003400340034003400340034003463
:1017E6000034003400340034003400340034003453
:1017F600743465346D3470346534723461347434E1
:0C1806007534723461343A3420340034FC
:10181200683461342034663475346D346134633431
:0A18220061342E342E342E340034CD
:0E182C00203467347234613475347334003400
:10183A006F3470346334203469346E3476346134EE
:0A184A006C346934643461340034F6
:0E185400663469346D3420343A34293400345B
:101862006D34653464346934633461346F342A34DA
:02187200003440
:041874000A340034FE
:0418780030340034D4
:04187C000034003400
:081880004E3461344E34003493
:0418880030340034C4
:04188C0000340034F0
:0418900000340034EC
:081894000034003402348534F5
:02400E004A2F37
:00000001FF
